{
  "contractName": "KaspTokens",
  "abi": [
    {
      "inputs": [],
      "stateMutability": "nonpayable",
      "type": "constructor"
    },
    {
      "inputs": [],
      "name": "totalSupply",
      "outputs": [
        {
          "internalType": "uint256",
          "name": "",
          "type": "uint256"
        }
      ],
      "stateMutability": "view",
      "type": "function",
      "constant": true
    }
  ],
  "bytecode": "0x608060405260008055348015601357600080fd5b506305f5e10060008190555060858061002d6000396000f3fe6080604052348015600f57600080fd5b506004361060285760003560e01c806318160ddd14602d575b600080fd5b60336049565b6040518082815260200191505060405180910390f35b6000548156fea2646970667358221220bdab6a5271c6a5bd45f51da6cb1137fa58d02a992784ec8d8051e9a7750dcadb64736f6c63430006020033",
  "source": "// SPDX-License-Identifier: MIT\npragma solidity >=0.5.21 <=0.7.0;\n\ncontract KaspTokens {\n    uint256 public totalSupply = 0;\n\n    constructor() public {\n        totalSupply = 100000000;\n    }\n}\n",
  "sourcePath": "C:/Disk_Dhairya/Projects/blockchain/Custom_token_exchange/contracts/KaspTokens.sol",
  "compiler": {
    "name": "solc",
    "version": "0.6.2+commit.bacdbe57.Emscripten.clang"
  },
  "schemaVersion": "3.3.2",
  "updatedAt": "2020-11-22T06:06:05.091Z",
  "networkType": "ethereum",
  "devdoc": {
    "methods": {}
  },
  "userdoc": {
    "methods": {}
  }
}