{
  "contractName": "KaspTokens",
  "abi": [
    {
      "inputs": [
        {
          "internalType": "uint256",
          "name": "_initial_supply",
          "type": "uint256"
        }
      ],
      "stateMutability": "nonpayable",
      "type": "constructor"
    },
    {
      "inputs": [
        {
          "internalType": "address",
          "name": "",
          "type": "address"
        }
      ],
      "name": "balanceOf",
      "outputs": [
        {
          "internalType": "uint256",
          "name": "",
          "type": "uint256"
        }
      ],
      "stateMutability": "view",
      "type": "function",
      "constant": true
    },
    {
      "inputs": [],
      "name": "totalSupply",
      "outputs": [
        {
          "internalType": "uint256",
          "name": "",
          "type": "uint256"
        }
      ],
      "stateMutability": "view",
      "type": "function",
      "constant": true
    }
  ],
  "bytecode": "0x60806040526000805534801561001457600080fd5b506040516101a03803806101a08339818101604052602081101561003757600080fd5b810190808051906020019092919050505080600081905550600054600160003373ffffffffffffffffffffffffffffffffffffffff1673ffffffffffffffffffffffffffffffffffffffff168152602001908152602001600020819055505060fc806100a46000396000f3fe6080604052348015600f57600080fd5b506004361060325760003560e01c806318160ddd14603757806370a08231146053575b600080fd5b603d60a8565b6040518082815260200191505060405180910390f35b609260048036036020811015606757600080fd5b81019080803573ffffffffffffffffffffffffffffffffffffffff16906020019092919050505060ae565b6040518082815260200191505060405180910390f35b60005481565b6001602052806000526040600020600091509050548156fea2646970667358221220119bc74fe7b2acb27b995ef0d79269395c0fe00b77ff205d2bee85ccca3c059464736f6c63430006020033",
  "source": "// SPDX-License-Identifier: MIT\npragma solidity >=0.5.21 <=0.7.0;\n\ncontract KaspTokens {\n    uint256 public totalSupply = 0;\n    mapping(address => uint256) public balanceOf;\n\n    constructor(uint256 _initial_supply) public {\n        totalSupply = _initial_supply;\n        balanceOf[msg.sender] = totalSupply;\n    }\n}\n",
  "sourcePath": "C:/Disk_Dhairya/Projects/blockchain/Custom_token_exchange/contracts/KaspTokens.sol",
  "compiler": {
    "name": "solc",
    "version": "0.6.2+commit.bacdbe57.Emscripten.clang"
  },
  "schemaVersion": "3.3.2",
  "updatedAt": "2020-11-22T16:19:24.524Z",
  "networkType": "ethereum",
  "devdoc": {
    "methods": {}
  },
  "userdoc": {
    "methods": {}
  }
}